{
  "contractName": "ThoughtEdition",
  "abi": [
    {
      "inputs": [
        {
          "internalType": "address",
          "name": "_factory",
          "type": "address"
        },
        {
          "internalType": "string",
          "name": "_baseMetadataURI",
          "type": "string"
        }
      ],
      "stateMutability": "nonpayable",
      "type": "constructor"
    },
    {
      "anonymous": false,
      "inputs": [
        {
          "indexed": true,
          "internalType": "address",
          "name": "owner",
          "type": "address"
        },
        {
          "indexed": true,
          "internalType": "address",
          "name": "approved",
          "type": "address"
        },
        {
          "indexed": true,
          "internalType": "uint256",
          "name": "tokenId",
          "type": "uint256"
        }
      ],
      "name": "Approval",
      "type": "event"
    },
    {
      "anonymous": false,
      "inputs": [
        {
          "indexed": true,
          "internalType": "address",
          "name": "owner",
          "type": "address"
        },
        {
          "indexed": true,
          "internalType": "address",
          "name": "operator",
          "type": "address"
        },
        {
          "indexed": false,
          "internalType": "bool",
          "name": "approved",
          "type": "bool"
        }
      ],
      "name": "ApprovalForAll",
      "type": "event"
    },
    {
      "anonymous": false,
      "inputs": [
        {
          "indexed": true,
          "internalType": "address",
          "name": "previousOwner",
          "type": "address"
        },
        {
          "indexed": true,
          "internalType": "address",
          "name": "newOwner",
          "type": "address"
        }
      ],
      "name": "OwnershipTransferred",
      "type": "event"
    },
    {
      "anonymous": false,
      "inputs": [
        {
          "indexed": true,
          "internalType": "address",
          "name": "clone",
          "type": "address"
        },
        {
          "indexed": false,
          "internalType": "uint256",
          "name": "tokenId",
          "type": "uint256"
        },
        {
          "indexed": true,
          "internalType": "address",
          "name": "recipient",
          "type": "address"
        },
        {
          "indexed": false,
          "internalType": "uint256",
          "name": "price",
          "type": "uint256"
        }
      ],
      "name": "ThoughtEditionPurchased",
      "type": "event"
    },
    {
      "anonymous": false,
      "inputs": [
        {
          "indexed": true,
          "internalType": "address",
          "name": "from",
          "type": "address"
        },
        {
          "indexed": true,
          "internalType": "address",
          "name": "to",
          "type": "address"
        },
        {
          "indexed": true,
          "internalType": "uint256",
          "name": "tokenId",
          "type": "uint256"
        }
      ],
      "name": "Transfer",
      "type": "event"
    },
    {
      "inputs": [],
      "name": "acceptOwnership",
      "outputs": [],
      "stateMutability": "nonpayable",
      "type": "function"
    },
    {
      "inputs": [
        {
          "internalType": "address",
          "name": "to",
          "type": "address"
        },
        {
          "internalType": "uint256",
          "name": "tokenId",
          "type": "uint256"
        }
      ],
      "name": "approve",
      "outputs": [],
      "stateMutability": "nonpayable",
      "type": "function"
    },
    {
      "inputs": [
        {
          "internalType": "address",
          "name": "owner",
          "type": "address"
        }
      ],
      "name": "balanceOf",
      "outputs": [
        {
          "internalType": "uint256",
          "name": "",
          "type": "uint256"
        }
      ],
      "stateMutability": "view",
      "type": "function"
    },
    {
      "inputs": [
        {
          "internalType": "uint256",
          "name": "tokenId",
          "type": "uint256"
        }
      ],
      "name": "burn",
      "outputs": [],
      "stateMutability": "nonpayable",
      "type": "function"
    },
    {
      "inputs": [],
      "name": "cancelOwnershipTransfer",
      "outputs": [],
      "stateMutability": "nonpayable",
      "type": "function"
    },
    {
      "inputs": [],
      "name": "createdAt",
      "outputs": [
        {
          "internalType": "uint256",
          "name": "",
          "type": "uint256"
        }
      ],
      "stateMutability": "view",
      "type": "function"
    },
    {
      "inputs": [],
      "name": "factory",
      "outputs": [
        {
          "internalType": "address",
          "name": "",
          "type": "address"
        }
      ],
      "stateMutability": "view",
      "type": "function"
    },
    {
      "inputs": [
        {
          "internalType": "uint256",
          "name": "tokenId",
          "type": "uint256"
        }
      ],
      "name": "getApproved",
      "outputs": [
        {
          "internalType": "address",
          "name": "",
          "type": "address"
        }
      ],
      "stateMutability": "view",
      "type": "function"
    },
    {
      "inputs": [],
      "name": "getContentURI",
      "outputs": [
        {
          "internalType": "string",
          "name": "",
          "type": "string"
        }
      ],
      "stateMutability": "view",
      "type": "function"
    },
    {
      "inputs": [],
      "name": "getEdition",
      "outputs": [
        {
          "components": [
            {
              "internalType": "string",
              "name": "title",
              "type": "string"
            },
            {
              "internalType": "string",
              "name": "imageURI",
              "type": "string"
            },
            {
              "internalType": "string",
              "name": "contentURI",
              "type": "string"
            },
            {
              "internalType": "uint256",
              "name": "price",
              "type": "uint256"
            },
            {
              "internalType": "uint256",
              "name": "createdAt",
              "type": "uint256"
            },
            {
              "internalType": "uint256",
              "name": "totalPurchased",
              "type": "uint256"
            }
          ],
          "internalType": "struct IThoughtEdition.ThoughtEdition",
          "name": "",
          "type": "tuple"
        }
      ],
      "stateMutability": "view",
      "type": "function"
    },
    {
      "inputs": [],
      "name": "imageURI",
      "outputs": [
        {
          "internalType": "string",
          "name": "",
          "type": "string"
        }
      ],
      "stateMutability": "view",
      "type": "function"
    },
    {
      "inputs": [
        {
          "internalType": "address",
          "name": "_owner",
          "type": "address"
        },
        {
          "components": [
            {
              "internalType": "string",
              "name": "title",
              "type": "string"
            },
            {
              "internalType": "string",
              "name": "imageURI",
              "type": "string"
            },
            {
              "internalType": "string",
              "name": "contentURI",
              "type": "string"
            },
            {
              "internalType": "uint256",
              "name": "price",
              "type": "uint256"
            },
            {
              "internalType": "uint256",
              "name": "createdAt",
              "type": "uint256"
            },
            {
              "internalType": "uint256",
              "name": "totalPurchased",
              "type": "uint256"
            }
          ],
          "internalType": "struct IThoughtEdition.ThoughtEdition",
          "name": "edition",
          "type": "tuple"
        }
      ],
      "name": "initialize",
      "outputs": [],
      "stateMutability": "nonpayable",
      "type": "function"
    },
    {
      "inputs": [
        {
          "internalType": "address",
          "name": "owner",
          "type": "address"
        },
        {
          "internalType": "address",
          "name": "operator",
          "type": "address"
        }
      ],
      "name": "isApprovedForAll",
      "outputs": [
        {
          "internalType": "bool",
          "name": "",
          "type": "bool"
        }
      ],
      "stateMutability": "view",
      "type": "function"
    },
    {
      "inputs": [],
      "name": "isNextOwner",
      "outputs": [
        {
          "internalType": "bool",
          "name": "",
          "type": "bool"
        }
      ],
      "stateMutability": "view",
      "type": "function"
    },
    {
      "inputs": [],
      "name": "isOwner",
      "outputs": [
        {
          "internalType": "bool",
          "name": "",
          "type": "bool"
        }
      ],
      "stateMutability": "view",
      "type": "function"
    },
    {
      "inputs": [],
      "name": "name",
      "outputs": [
        {
          "internalType": "string",
          "name": "",
          "type": "string"
        }
      ],
      "stateMutability": "view",
      "type": "function"
    },
    {
      "inputs": [],
      "name": "owner",
      "outputs": [
        {
          "internalType": "address",
          "name": "",
          "type": "address"
        }
      ],
      "stateMutability": "view",
      "type": "function"
    },
    {
      "inputs": [
        {
          "internalType": "uint256",
          "name": "tokenId",
          "type": "uint256"
        }
      ],
      "name": "ownerOf",
      "outputs": [
        {
          "internalType": "address",
          "name": "",
          "type": "address"
        }
      ],
      "stateMutability": "view",
      "type": "function"
    },
    {
      "inputs": [],
      "name": "price",
      "outputs": [
        {
          "internalType": "uint256",
          "name": "",
          "type": "uint256"
        }
      ],
      "stateMutability": "view",
      "type": "function"
    },
    {
      "inputs": [],
      "name": "purchase",
      "outputs": [],
      "stateMutability": "payable",
      "type": "function"
    },
    {
      "inputs": [],
      "name": "renounceOwnership",
      "outputs": [],
      "stateMutability": "nonpayable",
      "type": "function"
    },
    {
      "inputs": [
        {
          "internalType": "address",
          "name": "to",
          "type": "address"
        }
      ],
      "name": "safeMint",
      "outputs": [],
      "stateMutability": "nonpayable",
      "type": "function"
    },
    {
      "inputs": [
        {
          "internalType": "address",
          "name": "from",
          "type": "address"
        },
        {
          "internalType": "address",
          "name": "to",
          "type": "address"
        },
        {
          "internalType": "uint256",
          "name": "tokenId",
          "type": "uint256"
        }
      ],
      "name": "safeTransferFrom",
      "outputs": [],
      "stateMutability": "nonpayable",
      "type": "function"
    },
    {
      "inputs": [
        {
          "internalType": "address",
          "name": "from",
          "type": "address"
        },
        {
          "internalType": "address",
          "name": "to",
          "type": "address"
        },
        {
          "internalType": "uint256",
          "name": "tokenId",
          "type": "uint256"
        },
        {
          "internalType": "bytes",
          "name": "data",
          "type": "bytes"
        }
      ],
      "name": "safeTransferFrom",
      "outputs": [],
      "stateMutability": "nonpayable",
      "type": "function"
    },
    {
      "inputs": [
        {
          "internalType": "address",
          "name": "operator",
          "type": "address"
        },
        {
          "internalType": "bool",
          "name": "approved",
          "type": "bool"
        }
      ],
      "name": "setApprovalForAll",
      "outputs": [],
      "stateMutability": "nonpayable",
      "type": "function"
    },
    {
      "inputs": [
        {
          "internalType": "string",
          "name": "uri",
          "type": "string"
        }
      ],
      "name": "setBaseURI",
      "outputs": [],
      "stateMutability": "nonpayable",
      "type": "function"
    },
    {
      "inputs": [
        {
          "internalType": "bytes4",
          "name": "interfaceId",
          "type": "bytes4"
        }
      ],
      "name": "supportsInterface",
      "outputs": [
        {
          "internalType": "bool",
          "name": "",
          "type": "bool"
        }
      ],
      "stateMutability": "view",
      "type": "function"
    },
    {
      "inputs": [],
      "name": "symbol",
      "outputs": [
        {
          "internalType": "string",
          "name": "",
          "type": "string"
        }
      ],
      "stateMutability": "view",
      "type": "function"
    },
    {
      "inputs": [],
      "name": "title",
      "outputs": [
        {
          "internalType": "string",
          "name": "",
          "type": "string"
        }
      ],
      "stateMutability": "view",
      "type": "function"
    },
    {
      "inputs": [
        {
          "internalType": "uint256",
          "name": "index",
          "type": "uint256"
        }
      ],
      "name": "tokenByIndex",
      "outputs": [
        {
          "internalType": "uint256",
          "name": "",
          "type": "uint256"
        }
      ],
      "stateMutability": "view",
      "type": "function"
    },
    {
      "inputs": [
        {
          "internalType": "address",
          "name": "owner",
          "type": "address"
        },
        {
          "internalType": "uint256",
          "name": "index",
          "type": "uint256"
        }
      ],
      "name": "tokenOfOwnerByIndex",
      "outputs": [
        {
          "internalType": "uint256",
          "name": "",
          "type": "uint256"
        }
      ],
      "stateMutability": "view",
      "type": "function"
    },
    {
      "inputs": [
        {
          "internalType": "uint256",
          "name": "tokenId",
          "type": "uint256"
        }
      ],
      "name": "tokenURI",
      "outputs": [
        {
          "internalType": "string",
          "name": "",
          "type": "string"
        }
      ],
      "stateMutability": "view",
      "type": "function"
    },
    {
      "inputs": [],
      "name": "totalSupply",
      "outputs": [
        {
          "internalType": "uint256",
          "name": "",
          "type": "uint256"
        }
      ],
      "stateMutability": "view",
      "type": "function"
    },
    {
      "inputs": [
        {
          "internalType": "address",
          "name": "from",
          "type": "address"
        },
        {
          "internalType": "address",
          "name": "to",
          "type": "address"
        },
        {
          "internalType": "uint256",
          "name": "tokenId",
          "type": "uint256"
        }
      ],
      "name": "transferFrom",
      "outputs": [],
      "stateMutability": "nonpayable",
      "type": "function"
    },
    {
      "inputs": [
        {
          "internalType": "address",
          "name": "nextOwner_",
          "type": "address"
        }
      ],
      "name": "transferOwnership",
      "outputs": [],
      "stateMutability": "nonpayable",
      "type": "function"
    }
  ],
  "bytecode": "0x60a06040523480156200001157600080fd5b50d380156200001f57600080fd5b50d280156200002d57600080fd5b50604051620065dd380380620065dd8339818101604052810190620000539190620003c3565b60006040518060400160405280600e81526020017f54686f7567687445646974696f6e0000000000000000000000000000000000008152506040518060400160405280600381526020017f54485400000000000000000000000000000000000000000000000000000000008152508160009080519060200190620000d992919062000271565b508060019080519060200190620000f292919062000271565b5050506200010681620001d260201b60201c565b50600073ffffffffffffffffffffffffffffffffffffffff168273ffffffffffffffffffffffffffffffffffffffff1614156200017a576040517f08c379a0000000000000000000000000000000000000000000000000000000008152600401620001719062000450565b60405180910390fd5b8173ffffffffffffffffffffffffffffffffffffffff1660808173ffffffffffffffffffffffffffffffffffffffff1660601b815250508060119080519060200190620001c992919062000271565b5050506200069f565b80600a60006101000a81548173ffffffffffffffffffffffffffffffffffffffff021916908373ffffffffffffffffffffffffffffffffffffffff1602179055508073ffffffffffffffffffffffffffffffffffffffff16600073ffffffffffffffffffffffffffffffffffffffff167f8be0079c531659141344cd1fd0a4f28419497f9722a3daafe3b4186f6b6457e060405160405180910390a350565b8280546200027f906200056d565b90600052602060002090601f016020900481019282620002a35760008555620002ef565b82601f10620002be57805160ff1916838001178555620002ef565b82800160010185558215620002ef579182015b82811115620002ee578251825591602001919060010190620002d1565b5b509050620002fe919062000302565b5090565b5b808211156200031d57600081600090555060010162000303565b5090565b60006200033862000332846200049b565b62000472565b9050828152602081018484840111156200035757620003566200063c565b5b6200036484828562000537565b509392505050565b6000815190506200037d8162000685565b6200038881620004e2565b905092915050565b600082601f830112620003a857620003a762000637565b5b8151620003ba84826020860162000321565b91505092915050565b60008060408385031215620003dd57620003dc62000646565b5b6000620003ed858286016200036c565b925050602083015167ffffffffffffffff81111562000411576200041062000641565b5b6200041f8582860162000390565b9150509250929050565b600062000438601083620004d1565b915062000445826200065c565b602082019050919050565b600060208201905081810360008301526200046b8162000429565b9050919050565b60006200047e62000491565b90506200048c8282620005a3565b919050565b6000604051905090565b600067ffffffffffffffff821115620004b957620004b862000608565b5b620004c4826200064b565b9050602081019050919050565b600082825260208201905092915050565b6000620004ef82620004f6565b9050919050565b600073ffffffffffffffffffffffffffffffffffffffff82169050919050565b600074ffffffffffffffffffffffffffffffffffffffffff82169050919050565b60005b83811015620005575780820151818401526020810190506200053a565b8381111562000567576000848401525b50505050565b600060028204905060018216806200058657607f821691505b602082108114156200059d576200059c620005d9565b5b50919050565b620005ae826200064b565b810181811067ffffffffffffffff82111715620005d057620005cf62000608565b5b80604052505050565b7f4e487b7100000000000000000000000000000000000000000000000000000000600052602260045260246000fd5b7f4e487b7100000000000000000000000000000000000000000000000000000000600052604160045260246000fd5b600080fd5b600080fd5b600080fd5b600080fd5b6000601f19601f8301169050919050565b7f6d7573742073657420666163746f727900000000000000000000000000000000600082015250565b620006908162000516565b81146200069c57600080fd5b50565b60805160601c615f11620006cc60003960008181610e1c0152818161147b0152611c340152615f116000f3fe6080604052600436106102045760003560e01c806364edfbf011610118578063a035b1fe116100a0578063c87b56dd1161006f578063c87b56dd14610a02578063cf09e0d014610a59578063e985e9c514610a9e578063ed459df214610af5578063f2fde38b14610b3a57610204565b8063a035b1fe146108f2578063a22cb46514610937578063b88d4fde1461097a578063c45a0155146109bd57610204565b806379ba5097116100e757806379ba5097146107ad57806388ac8284146107de5780638da5cb5b146108235780638f32d59b1461086857806395d89b41146108ad57610204565b806364edfbf0146106d657806370a08231146106e0578063715018a61461073757806377b46d4d1461076857610204565b806323b872dd1161019b57806342966c681161016a57806342966c681461055d5780634a79d50c146105a05780634f6ccce7146105e557806355f804b31461063c5780636352211e1461067f57610204565b806323b872dd1461043d5780632f745c591461048057806340d097c3146104d757806342842e0e1461051a57610204565b8063135d088d116101d7578063135d088d1461033f57806318160ddd14610384578063226a50b6146103c957806323452b9c1461040c57610204565b806301ffc9a71461020957806306fdde0314610260578063081812fc146102a5578063095ea7b3146102fc575b600080fd5b34801561021557600080fd5b50d3801561022257600080fd5b50d2801561022f57600080fd5b5061024a60048036038101906102459190614120565b610b7d565b6040516102579190614b53565b60405180910390f35b34801561026c57600080fd5b50d3801561027957600080fd5b50d2801561028657600080fd5b5061028f610b8f565b60405161029c9190614b6e565b60405180910390f35b3480156102b157600080fd5b50d380156102be57600080fd5b50d280156102cb57600080fd5b506102e660048036038101906102e191906141c3565b610c21565b6040516102f39190614aec565b60405180910390f35b34801561030857600080fd5b50d3801561031557600080fd5b50d2801561032257600080fd5b5061033d600480360381019061033891906140e0565b610c67565b005b34801561034b57600080fd5b50d3801561035857600080fd5b50d2801561036557600080fd5b5061036e610d7f565b60405161037b9190614b6e565b60405180910390f35b34801561039057600080fd5b50d3801561039d57600080fd5b50d280156103aa57600080fd5b506103b3610e0d565b6040516103c09190614e52565b60405180910390f35b3480156103d557600080fd5b50d380156103e257600080fd5b50d280156103ef57600080fd5b5061040a60048036038101906104059190614084565b610e1a565b005b34801561041857600080fd5b50d3801561042557600080fd5b50d2801561043257600080fd5b5061043b610f1c565b005b34801561044957600080fd5b50d3801561045657600080fd5b50d2801561046357600080fd5b5061047e60048036038101906104799190613f6e565b610f8a565b005b34801561048c57600080fd5b50d3801561049957600080fd5b50d280156104a657600080fd5b506104c160048036038101906104bc91906140e0565b610fea565b6040516104ce9190614e52565b60405180910390f35b3480156104e357600080fd5b50d380156104f057600080fd5b50d280156104fd57600080fd5b5061051860048036038101906105139190613f01565b61108f565b005b34801561052657600080fd5b50d3801561053357600080fd5b50d2801561054057600080fd5b5061055b60048036038101906105569190613f6e565b6110fc565b005b34801561056957600080fd5b50d3801561057657600080fd5b50d2801561058357600080fd5b5061059e600480360381019061059991906141c3565b61111c565b005b3480156105ac57600080fd5b50d380156105b957600080fd5b50d280156105c657600080fd5b506105cf611178565b6040516105dc9190614b6e565b60405180910390f35b3480156105f157600080fd5b50d380156105fe57600080fd5b50d2801561060b57600080fd5b50610626600480360381019061062191906141c3565b611206565b6040516106339190614e52565b60405180910390f35b34801561064857600080fd5b50d3801561065557600080fd5b50d2801561066257600080fd5b5061067d6004803603810190610678919061417a565b611277565b005b34801561068b57600080fd5b50d3801561069857600080fd5b50d280156106a557600080fd5b506106c060048036038101906106bb91906141c3565b6112d8565b6040516106cd9190614aec565b60405180910390f35b6106de61135f565b005b3480156106ec57600080fd5b50d380156106f957600080fd5b50d2801561070657600080fd5b50610721600480360381019061071c9190613f01565b611570565b60405161072e9190614e52565b60405180910390f35b34801561074357600080fd5b50d3801561075057600080fd5b50d2801561075d57600080fd5b50610766611628565b005b34801561077457600080fd5b50d3801561078157600080fd5b50d2801561078e57600080fd5b50610797611679565b6040516107a49190614b6e565b60405180910390f35b3480156107b957600080fd5b50d380156107c657600080fd5b50d280156107d357600080fd5b506107dc611750565b005b3480156107ea57600080fd5b50d380156107f757600080fd5b50d2801561080457600080fd5b5061080d61187b565b60405161081a9190614e30565b60405180910390f35b34801561082f57600080fd5b50d3801561083c57600080fd5b50d2801561084957600080fd5b50610852611aa4565b60405161085f9190614aec565b60405180910390f35b34801561087457600080fd5b50d3801561088157600080fd5b50d2801561088e57600080fd5b50610897611aca565b6040516108a49190614b53565b60405180910390f35b3480156108b957600080fd5b50d380156108c657600080fd5b50d280156108d357600080fd5b506108dc611b22565b6040516108e99190614b6e565b60405180910390f35b3480156108fe57600080fd5b50d3801561090b57600080fd5b50d2801561091857600080fd5b50610921611bb4565b60405161092e9190614e52565b60405180910390f35b34801561094357600080fd5b50d3801561095057600080fd5b50d2801561095d57600080fd5b5061097860048036038101906109739190614044565b611bba565b005b34801561098657600080fd5b50d3801561099357600080fd5b50d280156109a057600080fd5b506109bb60048036038101906109b69190613fc1565b611bd0565b005b3480156109c957600080fd5b50d380156109d657600080fd5b50d280156109e357600080fd5b506109ec611c32565b6040516109f99190614aec565b60405180910390f35b348015610a0e57600080fd5b50d38015610a1b57600080fd5b50d28015610a2857600080fd5b50610a436004803603810190610a3e91906141c3565b611c56565b604051610a509190614b6e565b60405180910390f35b348015610a6557600080fd5b50d38015610a7257600080fd5b50d28015610a7f57600080fd5b50610a88611db0565b604051610a959190614e52565b60405180910390f35b348015610aaa57600080fd5b50d38015610ab757600080fd5b50d28015610ac457600080fd5b50610adf6004803603810190610ada9190613f2e565b611db6565b604051610aec9190614b53565b60405180910390f35b348015610b0157600080fd5b50d38015610b0e57600080fd5b50d28015610b1b57600080fd5b50610b24611e4a565b604051610b319190614b53565b60405180910390f35b348015610b4657600080fd5b50d38015610b5357600080fd5b50d28015610b6057600080fd5b50610b7b6004803603810190610b769190613f01565b611ea2565b005b6000610b8882611f9d565b9050919050565b606060008054610b9e906153d2565b80601f0160208091040260200160405190810160405280929190818152602001828054610bca906153d2565b8015610c175780601f10610bec57610100808354040283529160200191610c17565b820191906000526020600020905b815481529060010190602001808311610bfa57829003601f168201915b5050505050905090565b6000610c2c82612017565b6004600083815260200190815260200160002060009054906101000a900473ffffffffffffffffffffffffffffffffffffffff169050919050565b6000610c72826112d8565b90508073ffffffffffffffffffffffffffffffffffffffff168373ffffffffffffffffffffffffffffffffffffffff161415610ce3576040517f08c379a0000000000000000000000000000000000000000000000000000000008152600401610cda90614d70565b60405180910390fd5b8073ffffffffffffffffffffffffffffffffffffffff16610d02612062565b73ffffffffffffffffffffffffffffffffffffffff161480610d315750610d3081610d2b612062565b611db6565b5b610d70576040517f08c379a0000000000000000000000000000000000000000000000000000000008152600401610d6790614d90565b60405180910390fd5b610d7a838361206a565b505050565b600e8054610d8c906153d2565b80601f0160208091040260200160405190810160405280929190818152602001828054610db8906153d2565b8015610e055780601f10610dda57610100808354040283529160200191610e05565b820191906000526020600020905b815481529060010190602001808311610de857829003601f168201915b505050505081565b6000600880549050905090565b7f000000000000000000000000000000000000000000000000000000000000000073ffffffffffffffffffffffffffffffffffffffff163373ffffffffffffffffffffffffffffffffffffffff1614610ea8576040517f08c379a0000000000000000000000000000000000000000000000000000000008152600401610e9f90614c70565b60405180910390fd5b8060000151600c9080519060200190610ec2929190613be0565b508060200151600e9080519060200190610edd929190613be0565b508060400151600d9080519060200190610ef8929190613be0565b508060600151600f819055508060800151601081905550610f1882612123565b5050565b610f24611aca565b610f63576040517f08c379a0000000000000000000000000000000000000000000000000000000008152600401610f5a90614bf0565b60405180910390fd5b600b60006101000a81549073ffffffffffffffffffffffffffffffffffffffff0219169055565b610f9b610f95612062565b826121c2565b610fda576040517f08c379a0000000000000000000000000000000000000000000000000000000008152600401610fd190614bb0565b60405180910390fd5b610fe5838383612257565b505050565b6000610ff583611570565b8210611036576040517f08c379a000000000000000000000000000000000000000000000000000000000815260040161102d90614c10565b60405180910390fd5b600660008473ffffffffffffffffffffffffffffffffffffffff1673ffffffffffffffffffffffffffffffffffffffff168152602001908152602001600020600083815260200190815260200160002054905092915050565b611097611aca565b6110d6576040517f08c379a00000000000000000000000000000000000000000000000000000000081526004016110cd90614bf0565b60405180910390fd5b60006110e26012612551565b90506110ee601261255f565b6110f88282612575565b5050565b61111783838360405180602001604052806000815250611bd0565b505050565b61112d611127612062565b826121c2565b61116c576040517f08c379a000000000000000000000000000000000000000000000000000000000815260040161116390614bb0565b60405180910390fd5b61117581612593565b50565b600c8054611185906153d2565b80601f01602080910402602001604051908101604052809291908181526020018280546111b1906153d2565b80156111fe5780601f106111d3576101008083540402835291602001916111fe565b820191906000526020600020905b8154815290600101906020018083116111e157829003601f168201915b505050505081565b6000611210610e0d565b8210611251576040517f08c379a000000000000000000000000000000000000000000000000000000000815260040161124890614dd0565b60405180910390fd5b60088281548110611265576112646155c3565b5b90600052602060002001549050919050565b61127f611aca565b6112be576040517f08c379a00000000000000000000000000000000000000000000000000000000081526004016112b590614bf0565b60405180910390fd5b80601190805190602001906112d4929190613be0565b5050565b6000806112e4836126e1565b9050600073ffffffffffffffffffffffffffffffffffffffff168173ffffffffffffffffffffffffffffffffffffffff161415611356576040517f08c379a000000000000000000000000000000000000000000000000000000000815260040161134d90614d50565b60405180910390fd5b80915050919050565b600f5434146113a3576040517f08c379a000000000000000000000000000000000000000000000000000000000815260040161139a90614db0565b60405180910390fd5b60006113ae33611570565b146113ee576040517f08c379a00000000000000000000000000000000000000000000000000000000081526004016113e590614e10565b60405180910390fd5b600a60009054906101000a900473ffffffffffffffffffffffffffffffffffffffff1673ffffffffffffffffffffffffffffffffffffffff166108fc349081150290604051600060405180830381858888f19350505050158015611456573d6000803e3d6000fd5b5060006114636012612551565b905061146f601261255f565b6114793382612575565b7f000000000000000000000000000000000000000000000000000000000000000073ffffffffffffffffffffffffffffffffffffffff1663a7d1e582336040518263ffffffff1660e01b81526004016114d29190614aec565b600060405180830381600087803b1580156114ec57600080fd5b505af1158015611500573d6000803e3d6000fd5b505050503373ffffffffffffffffffffffffffffffffffffffff163373ffffffffffffffffffffffffffffffffffffffff167f5d7ffe56c5961f76f5078f2ef859fa811fd0cd259cf9231bf283ccf5f4c34f7283600f54604051611565929190614e6d565b60405180910390a350565b60008073ffffffffffffffffffffffffffffffffffffffff168273ffffffffffffffffffffffffffffffffffffffff1614156115e1576040517f08c379a00000000000000000000000000000000000000000000000000000000081526004016115d890614cf0565b60405180910390fd5b600360008373ffffffffffffffffffffffffffffffffffffffff1673ffffffffffffffffffffffffffffffffffffffff168152602001908152602001600020549050919050565b611630611aca565b61166f576040517f08c379a000000000000000000000000000000000000000000000000000000000815260040161166690614bf0565b60405180910390fd5b61167761271e565b565b60606000600f5414806116945750600061169233611570565b115b806116a357506116a2611aca565b5b1561173a57600d80546116b5906153d2565b80601f01602080910402602001604051908101604052809291908181526020018280546116e1906153d2565b801561172e5780601f106117035761010080835404028352916020019161172e565b820191906000526020600020905b81548152906001019060200180831161171157829003601f168201915b5050505050905061174d565b6040518060200160405280600081525090505b90565b611758611e4a565b611797576040517f08c379a000000000000000000000000000000000000000000000000000000000815260040161178e90614b90565b60405180910390fd5b600b60006101000a81549073ffffffffffffffffffffffffffffffffffffffff021916905533600a60006101000a81548173ffffffffffffffffffffffffffffffffffffffff021916908373ffffffffffffffffffffffffffffffffffffffff1602179055503373ffffffffffffffffffffffffffffffffffffffff16600a60009054906101000a900473ffffffffffffffffffffffffffffffffffffffff1673ffffffffffffffffffffffffffffffffffffffff167f8be0079c531659141344cd1fd0a4f28419497f9722a3daafe3b4186f6b6457e060405160405180910390a3565b611883613c66565b60006040518060200160405280600081525090506000600f5414806118b0575060006118ae33611570565b115b806118bf57506118be611aca565b5b1561195257600d80546118d1906153d2565b80601f01602080910402602001604051908101604052809291908181526020018280546118fd906153d2565b801561194a5780601f1061191f5761010080835404028352916020019161194a565b820191906000526020600020905b81548152906001019060200180831161192d57829003601f168201915b505050505090505b6040518060c00160405280600c805461196a906153d2565b80601f0160208091040260200160405190810160405280929190818152602001828054611996906153d2565b80156119e35780601f106119b8576101008083540402835291602001916119e3565b820191906000526020600020905b8154815290600101906020018083116119c657829003601f168201915b50505050508152602001600e80546119fa906153d2565b80601f0160208091040260200160405190810160405280929190818152602001828054611a26906153d2565b8015611a735780601f10611a4857610100808354040283529160200191611a73565b820191906000526020600020905b815481529060010190602001808311611a5657829003601f168201915b50505050508152602001828152602001600f5481526020016010548152602001611a9b610e0d565b81525091505090565b600a60009054906101000a900473ffffffffffffffffffffffffffffffffffffffff1681565b6000600a60009054906101000a900473ffffffffffffffffffffffffffffffffffffffff1673ffffffffffffffffffffffffffffffffffffffff163373ffffffffffffffffffffffffffffffffffffffff1614905090565b606060018054611b31906153d2565b80601f0160208091040260200160405190810160405280929190818152602001828054611b5d906153d2565b8015611baa5780601f10611b7f57610100808354040283529160200191611baa565b820191906000526020600020905b815481529060010190602001808311611b8d57829003601f168201915b5050505050905090565b600f5481565b611bcc611bc5612062565b83836127df565b5050565b611be1611bdb612062565b836121c2565b611c20576040517f08c379a0000000000000000000000000000000000000000000000000000000008152600401611c1790614bb0565b60405180910390fd5b611c2c8484848461294c565b50505050565b7f000000000000000000000000000000000000000000000000000000000000000081565b6060611c61826129a8565b611ca0576040517f08c379a0000000000000000000000000000000000000000000000000000000008152600401611c9790614d10565b60405180910390fd5b6000611d86611d38600c8054611cb5906153d2565b80601f0160208091040260200160405190810160405280929190818152602001828054611ce1906153d2565b8015611d2e5780601f10611d0357610100808354040283529160200191611d2e565b820191906000526020600020905b815481529060010190602001808311611d1157829003601f168201915b50505050506129e9565b611d4185612c81565b611d49612de2565b611d5287612e3b565b600e611d5d89612c81565b604051602001611d7296959493929190614a25565b604051602081830303815290604052612e79565b905080604051602001611d999190614aca565b604051602081830303815290604052915050919050565b60105481565b6000600560008473ffffffffffffffffffffffffffffffffffffffff1673ffffffffffffffffffffffffffffffffffffffff16815260200190815260200160002060008373ffffffffffffffffffffffffffffffffffffffff1673ffffffffffffffffffffffffffffffffffffffff16815260200190815260200160002060009054906101000a900460ff16905092915050565b6000600b60009054906101000a900473ffffffffffffffffffffffffffffffffffffffff1673ffffffffffffffffffffffffffffffffffffffff163373ffffffffffffffffffffffffffffffffffffffff1614905090565b611eaa611aca565b611ee9576040517f08c379a0000000000000000000000000000000000000000000000000000000008152600401611ee090614bf0565b60405180910390fd5b600073ffffffffffffffffffffffffffffffffffffffff168173ffffffffffffffffffffffffffffffffffffffff161415611f59576040517f08c379a0000000000000000000000000000000000000000000000000000000008152600401611f5090614bd0565b60405180910390fd5b80600b60006101000a81548173ffffffffffffffffffffffffffffffffffffffff021916908373ffffffffffffffffffffffffffffffffffffffff16021790555050565b60007f780e9d63000000000000000000000000000000000000000000000000000000007bffffffffffffffffffffffffffffffffffffffffffffffffffffffff1916827bffffffffffffffffffffffffffffffffffffffffffffffffffffffff19161480612010575061200f82612fdd565b5b9050919050565b612020816129a8565b61205f576040517f08c379a000000000000000000000000000000000000000000000000000000000815260040161205690614d50565b60405180910390fd5b50565b600033905090565b816004600083815260200190815260200160002060006101000a81548173ffffffffffffffffffffffffffffffffffffffff021916908373ffffffffffffffffffffffffffffffffffffffff160217905550808273ffffffffffffffffffffffffffffffffffffffff166120dd836112d8565b73ffffffffffffffffffffffffffffffffffffffff167f8c5be1e5ebec7d5bd14f71427d1e84f3dd0314c0f7b2291e5b200ac8c7c3b92560405160405180910390a45050565b80600a60006101000a81548173ffffffffffffffffffffffffffffffffffffffff021916908373ffffffffffffffffffffffffffffffffffffffff1602179055508073ffffffffffffffffffffffffffffffffffffffff16600073ffffffffffffffffffffffffffffffffffffffff167f8be0079c531659141344cd1fd0a4f28419497f9722a3daafe3b4186f6b6457e060405160405180910390a350565b6000806121ce836112d8565b90508073ffffffffffffffffffffffffffffffffffffffff168473ffffffffffffffffffffffffffffffffffffffff161480612210575061220f8185611db6565b5b8061224e57508373ffffffffffffffffffffffffffffffffffffffff1661223684610c21565b73ffffffffffffffffffffffffffffffffffffffff16145b91505092915050565b8273ffffffffffffffffffffffffffffffffffffffff16612277826112d8565b73ffffffffffffffffffffffffffffffffffffffff16146122cd576040517f08c379a00000000000000000000000000000000000000000000000000000000081526004016122c490614c50565b60405180910390fd5b600073ffffffffffffffffffffffffffffffffffffffff168273ffffffffffffffffffffffffffffffffffffffff16141561233d576040517f08c379a000000000000000000000000000000000000000000000000000000000815260040161233490614cb0565b60405180910390fd5b61234a83838360016130bf565b8273ffffffffffffffffffffffffffffffffffffffff1661236a826112d8565b73ffffffffffffffffffffffffffffffffffffffff16146123c0576040517f08c379a00000000000000000000000000000000000000000000000000000000081526004016123b790614c50565b60405180910390fd5b6004600082815260200190815260200160002060006101000a81549073ffffffffffffffffffffffffffffffffffffffff02191690556001600360008573ffffffffffffffffffffffffffffffffffffffff1673ffffffffffffffffffffffffffffffffffffffff168152602001908152602001600020600082825403925050819055506001600360008473ffffffffffffffffffffffffffffffffffffffff1673ffffffffffffffffffffffffffffffffffffffff16815260200190815260200160002060008282540192505081905550816002600083815260200190815260200160002060006101000a81548173ffffffffffffffffffffffffffffffffffffffff021916908373ffffffffffffffffffffffffffffffffffffffff160217905550808273ffffffffffffffffffffffffffffffffffffffff168473ffffffffffffffffffffffffffffffffffffffff167fddf252ad1be2c89b69c2b068fc378daa952ba7f163c4a11628f55a4df523b3ef60405160405180910390a461254c83838360016130d1565b505050565b600081600001549050919050565b6001816000016000828254019250508190555050565b61258f8282604051806020016040528060008152506130d7565b5050565b600061259e826112d8565b90506125ae8160008460016130bf565b6125b7826112d8565b90506004600083815260200190815260200160002060006101000a81549073ffffffffffffffffffffffffffffffffffffffff02191690556001600360008373ffffffffffffffffffffffffffffffffffffffff1673ffffffffffffffffffffffffffffffffffffffff168152602001908152602001600020600082825403925050819055506002600083815260200190815260200160002060006101000a81549073ffffffffffffffffffffffffffffffffffffffff021916905581600073ffffffffffffffffffffffffffffffffffffffff168273ffffffffffffffffffffffffffffffffffffffff167fddf252ad1be2c89b69c2b068fc378daa952ba7f163c4a11628f55a4df523b3ef60405160405180910390a46126dd8160008460016130d1565b5050565b60006002600083815260200190815260200160002060009054906101000a900473ffffffffffffffffffffffffffffffffffffffff169050919050565b600073ffffffffffffffffffffffffffffffffffffffff16600a60009054906101000a900473ffffffffffffffffffffffffffffffffffffffff1673ffffffffffffffffffffffffffffffffffffffff167f8be0079c531659141344cd1fd0a4f28419497f9722a3daafe3b4186f6b6457e060405160405180910390a36000600a60006101000a81548173ffffffffffffffffffffffffffffffffffffffff021916908373ffffffffffffffffffffffffffffffffffffffff160217905550565b8173ffffffffffffffffffffffffffffffffffffffff168373ffffffffffffffffffffffffffffffffffffffff16141561284e576040517f08c379a000000000000000000000000000000000000000000000000000000000815260040161284590614cd0565b60405180910390fd5b80600560008573ffffffffffffffffffffffffffffffffffffffff1673ffffffffffffffffffffffffffffffffffffffff16815260200190815260200160002060008473ffffffffffffffffffffffffffffffffffffffff1673ffffffffffffffffffffffffffffffffffffffff16815260200190815260200160002060006101000a81548160ff0219169083151502179055508173ffffffffffffffffffffffffffffffffffffffff168373ffffffffffffffffffffffffffffffffffffffff167f17307eab39ab6107e8899845ad3d59bd9653f200f220920489ca2b5937696c318360405161293f9190614b53565b60405180910390a3505050565b612957848484612257565b61296384848484613132565b6129a2576040517f08c379a000000000000000000000000000000000000000000000000000000000815260040161299990614c30565b60405180910390fd5b50505050565b60008073ffffffffffffffffffffffffffffffffffffffff166129ca836126e1565b73ffffffffffffffffffffffffffffffffffffffff1614159050919050565b606060008290506000805b82518160ff161015612a8c577f2200000000000000000000000000000000000000000000000000000000000000838260ff1681518110612a3757612a366155c3565b5b602001015160f81c60f81b7effffffffffffffffffffffffffffffffffffffffffffffffffffffffffffff19161415612a79578180612a759061547e565b9250505b8080612a849061547e565b9150506129f4565b5060008160ff161115612c765760008160ff168351612aab9190614f91565b67ffffffffffffffff811115612ac457612ac36155f2565b5b6040519080825280601f01601f191660200182016040528015612af65781602001600182028036833780820191505090505b509050600080600090505b84518160ff161015612c69577f2200000000000000000000000000000000000000000000000000000000000000858260ff1681518110612b4457612b436155c3565b5b602001015160f81c60f81b7effffffffffffffffffffffffffffffffffffffffffffffffffffffffffffff19161415612be7577f5c00000000000000000000000000000000000000000000000000000000000000838380612ba490615435565b945081518110612bb757612bb66155c3565b5b60200101907effffffffffffffffffffffffffffffffffffffffffffffffffffffffffffff1916908160001a9053505b848160ff1681518110612bfd57612bfc6155c3565b5b602001015160f81c60f81b838380612c1490615435565b945081518110612c2757612c266155c3565b5b60200101907effffffffffffffffffffffffffffffffffffffffffffffffffffffffffffff1916908160001a9053508080612c619061547e565b915050612b01565b5081945050505050612c7c565b83925050505b919050565b60606000821415612cc9576040518060400160405280600181526020017f30000000000000000000000000000000000000000000000000000000000000008152509050612ddd565b600082905060005b60008214612cfb578080612ce490615435565b915050600a82612cf4919061501e565b9150612cd1565b60008167ffffffffffffffff811115612d1757612d166155f2565b5b6040519080825280601f01601f191660200182016040528015612d495781602001600182028036833780820191505090505b5090505b60008514612dd657600182612d629190615286565b9150600a85612d7191906154d6565b6030612d7d9190614f91565b60f81b818381518110612d9357612d926155c3565b5b60200101907effffffffffffffffffffffffffffffffffffffffffffffffffffffffffffff1916908160001a905350600a85612dcf919061501e565b9450612d4d565b8093505050505b919050565b6060600c600a60009054906101000a900473ffffffffffffffffffffffffffffffffffffffff16600f54612e14610e0d565b604051602001612e2794939291906149af565b604051602081830303815290604052905090565b60606011612e48306132c4565b612e5184612c81565b604051602001612e6393929190614946565b6040516020818303038152906040529050919050565b6060600082511415612e9c57604051806020016040528060008152509050612fd8565b6000604051806060016040528060408152602001615e9c6040913990506000600360028551612ecb9190614f91565b612ed5919061501e565b6004612ee191906151f1565b67ffffffffffffffff811115612efa57612ef96155f2565b5b6040519080825280601f01601f191660200182016040528015612f2c5781602001600182028036833780820191505090505b509050600182016020820185865187015b80821015612f98576003820191508151603f8160121c168501518453600184019350603f81600c1c168501518453600184019350603f8160061c168501518453600184019350603f8116850151845360018401935050612f3d565b5050600386510660018114612fb45760028114612fc757612fcf565b603d6001830353603d6002830353612fcf565b603d60018303535b50505080925050505b919050565b60007f80ac58cd000000000000000000000000000000000000000000000000000000007bffffffffffffffffffffffffffffffffffffffffffffffffffffffff1916827bffffffffffffffffffffffffffffffffffffffffffffffffffffffff191614806130a857507f5b5e139f000000000000000000000000000000000000000000000000000000007bffffffffffffffffffffffffffffffffffffffffffffffffffffffff1916827bffffffffffffffffffffffffffffffffffffffffffffffffffffffff1916145b806130b857506130b7826134a6565b5b9050919050565b6130cb84848484613510565b50505050565b50505050565b6130e18383613670565b6130ee6000848484613132565b61312d576040517f08c379a000000000000000000000000000000000000000000000000000000000815260040161312490614c30565b60405180910390fd5b505050565b6000808473ffffffffffffffffffffffffffffffffffffffff163b11156132b7578373ffffffffffffffffffffffffffffffffffffffff1663150b7a02613177612062565b8786866040518563ffffffff1660e01b81526004016131999493929190614b07565b602060405180830381600087803b1580156131b357600080fd5b505af19250505080156131e457506040513d601f19601f820116820180604052508101906131e1919061414d565b60015b613267573d8060008114613214576040519150601f19603f3d011682016040523d82523d6000602084013e613219565b606091505b5060008151141561325f576040517f08c379a000000000000000000000000000000000000000000000000000000000815260040161325690614c30565b60405180910390fd5b805181602001fd5b63150b7a0260e01b7bffffffffffffffffffffffffffffffffffffffffffffffffffffffff1916817bffffffffffffffffffffffffffffffffffffffffffffffffffffffff1916149150506132bc565b600190505b949350505050565b60606000602867ffffffffffffffff8111156132e3576132e26155f2565b5b6040519080825280601f01601f1916602001820160405280156133155781602001600182028036833780820191505090505b50905060005b601481101561347d5760008160136133339190615286565b600861333f91906151f1565b600261334b91906150d3565b8573ffffffffffffffffffffffffffffffffffffffff1661336c919061501e565b60f81b9050600060108260f81c613383919061504f565b60f81b905060008160f81c601061339a919061524b565b8360f81c6133a891906152ba565b60f81b90506133b68261388e565b858560026133c491906151f1565b815181106133d5576133d46155c3565b5b60200101907effffffffffffffffffffffffffffffffffffffffffffffffffffffffffffff1916908160001a90535061340d8161388e565b85600186600261341d91906151f1565b6134279190614f91565b81518110613438576134376155c3565b5b60200101907effffffffffffffffffffffffffffffffffffffffffffffffffffffffffffff1916908160001a905350505050808061347590615435565b91505061331b565b508060405160200161348f919061498d565b604051602081830303815290604052915050919050565b60007f01ffc9a7000000000000000000000000000000000000000000000000000000007bffffffffffffffffffffffffffffffffffffffffffffffffffffffff1916827bffffffffffffffffffffffffffffffffffffffffffffffffffffffff1916149050919050565b61351c848484846138d4565b6001811115613560576040517f08c379a000000000000000000000000000000000000000000000000000000000815260040161355790614df0565b60405180910390fd5b6000829050600073ffffffffffffffffffffffffffffffffffffffff168573ffffffffffffffffffffffffffffffffffffffff1614156135a8576135a3816138da565b6135e7565b8373ffffffffffffffffffffffffffffffffffffffff168573ffffffffffffffffffffffffffffffffffffffff16146135e6576135e58582613923565b5b5b600073ffffffffffffffffffffffffffffffffffffffff168473ffffffffffffffffffffffffffffffffffffffff16141561362a5761362581613a90565b613669565b8473ffffffffffffffffffffffffffffffffffffffff168473ffffffffffffffffffffffffffffffffffffffff1614613668576136678482613b61565b5b5b5050505050565b600073ffffffffffffffffffffffffffffffffffffffff168273ffffffffffffffffffffffffffffffffffffffff1614156136e0576040517f08c379a00000000000000000000000000000000000000000000000000000000081526004016136d790614d30565b60405180910390fd5b6136e9816129a8565b15613729576040517f08c379a000000000000000000000000000000000000000000000000000000000815260040161372090614c90565b60405180910390fd5b6137376000838360016130bf565b613740816129a8565b15613780576040517f08c379a000000000000000000000000000000000000000000000000000000000815260040161377790614c90565b60405180910390fd5b6001600360008473ffffffffffffffffffffffffffffffffffffffff1673ffffffffffffffffffffffffffffffffffffffff16815260200190815260200160002060008282540192505081905550816002600083815260200190815260200160002060006101000a81548173ffffffffffffffffffffffffffffffffffffffff021916908373ffffffffffffffffffffffffffffffffffffffff160217905550808273ffffffffffffffffffffffffffffffffffffffff16600073ffffffffffffffffffffffffffffffffffffffff167fddf252ad1be2c89b69c2b068fc378daa952ba7f163c4a11628f55a4df523b3ef60405160405180910390a461388a6000838360016130d1565b5050565b6000600a8260f81c60ff1610156138b95760308260f81c6138af9190614fe7565b60f81b90506138cf565b60578260f81c6138c99190614fe7565b60f81b90505b919050565b50505050565b6008805490506009600083815260200190815260200160002081905550600881908060018154018082558091505060019003906000526020600020016000909190919091505550565b6000600161393084611570565b61393a9190615286565b9050600060076000848152602001908152602001600020549050818114613a1f576000600660008673ffffffffffffffffffffffffffffffffffffffff1673ffffffffffffffffffffffffffffffffffffffff168152602001908152602001600020600084815260200190815260200160002054905080600660008773ffffffffffffffffffffffffffffffffffffffff1673ffffffffffffffffffffffffffffffffffffffff168152602001908152602001600020600084815260200190815260200160002081905550816007600083815260200190815260200160002081905550505b6007600084815260200190815260200160002060009055600660008573ffffffffffffffffffffffffffffffffffffffff1673ffffffffffffffffffffffffffffffffffffffff16815260200190815260200160002060008381526020019081526020016000206000905550505050565b60006001600880549050613aa49190615286565b9050600060096000848152602001908152602001600020549050600060088381548110613ad457613ad36155c3565b5b906000526020600020015490508060088381548110613af657613af56155c3565b5b906000526020600020018190555081600960008381526020019081526020016000208190555060096000858152602001908152602001600020600090556008805480613b4557613b44615594565b5b6001900381819060005260206000200160009055905550505050565b6000613b6c83611570565b905081600660008573ffffffffffffffffffffffffffffffffffffffff1673ffffffffffffffffffffffffffffffffffffffff168152602001908152602001600020600083815260200190815260200160002081905550806007600084815260200190815260200160002081905550505050565b828054613bec906153d2565b90600052602060002090601f016020900481019282613c0e5760008555613c55565b82601f10613c2757805160ff1916838001178555613c55565b82800160010185558215613c55579182015b82811115613c54578251825591602001919060010190613c39565b5b509050613c629190613c9c565b5090565b6040518060c001604052806060815260200160608152602001606081526020016000815260200160008152602001600081525090565b5b80821115613cb5576000816000905550600101613c9d565b5090565b6000613ccc613cc784614ebb565b614e96565b905082815260208101848484011115613ce857613ce7615630565b5b613cf3848285615390565b509392505050565b6000613d0e613d0984614eec565b614e96565b905082815260208101848484011115613d2a57613d29615630565b5b613d35848285615390565b509392505050565b600081359050613d4c81615e3f565b613d55816152ee565b905092915050565b600081359050613d6c81615e56565b92915050565b600081359050613d8181615e6d565b92915050565b600081519050613d9681615e6d565b92915050565b600082601f830112613db157613db0615621565b5b8135613dc1848260208601613cb9565b91505092915050565b600082601f830112613ddf57613dde615621565b5b8135613def848260208601613cfb565b91505092915050565b600060c08284031215613e0e57613e0d615626565b5b613e1860c0614e96565b9050600082013567ffffffffffffffff811115613e3857613e3761562b565b5b613e4484828501613dca565b600083015250602082013567ffffffffffffffff811115613e6857613e6761562b565b5b613e7484828501613dca565b602083015250604082013567ffffffffffffffff811115613e9857613e9761562b565b5b613ea484828501613dca565b6040830152506060613eb884828501613eec565b6060830152506080613ecc84828501613eec565b60808301525060a0613ee084828501613eec565b60a08301525092915050565b600081359050613efb81615e84565b92915050565b600060208284031215613f1757613f1661563a565b5b6000613f2584828501613d3d565b91505092915050565b60008060408385031215613f4557613f4461563a565b5b6000613f5385828601613d3d565b9250506020613f6485828601613d3d565b9150509250929050565b600080600060608486031215613f8757613f8661563a565b5b6000613f9586828701613d3d565b9350506020613fa686828701613d3d565b9250506040613fb786828701613eec565b9150509250925092565b60008060008060808587031215613fdb57613fda61563a565b5b6000613fe987828801613d3d565b9450506020613ffa87828801613d3d565b935050604061400b87828801613eec565b925050606085013567ffffffffffffffff81111561402c5761402b615635565b5b61403887828801613d9c565b91505092959194509250565b6000806040838503121561405b5761405a61563a565b5b600061406985828601613d3d565b925050602061407a85828601613d5d565b9150509250929050565b6000806040838503121561409b5761409a61563a565b5b60006140a985828601613d3d565b925050602083013567ffffffffffffffff8111156140ca576140c9615635565b5b6140d685828601613df8565b9150509250929050565b600080604083850312156140f7576140f661563a565b5b600061410585828601613d3d565b925050602061411685828601613eec565b9150509250929050565b6000602082840312156141365761413561563a565b5b600061414484828501613d72565b91505092915050565b6000602082840312156141635761416261563a565b5b600061417184828501613d87565b91505092915050565b6000602082840312156141905761418f61563a565b5b600082013567ffffffffffffffff8111156141ae576141ad615635565b5b6141ba84828501613dca565b91505092915050565b6000602082840312156141d9576141d861563a565b5b60006141e784828501613eec565b91505092915050565b6141f9816152ee565b82525050565b61421061420b826152ee565b6154a8565b82525050565b61421f81615300565b82525050565b600061423082614f32565b61423a8185614f48565b935061424a81856020860161539f565b6142538161563f565b840191505092915050565b600061426982614f32565b6142738185614f59565b935061428381856020860161539f565b80840191505092915050565b600061429a82614f3d565b6142a48185614f64565b93506142b481856020860161539f565b6142bd8161563f565b840191505092915050565b60006142d382614f3d565b6142dd8185614f75565b93506142ed81856020860161539f565b6142f68161563f565b840191505092915050565b600061430c82614f3d565b6143168185614f86565b935061432681856020860161539f565b80840191505092915050565b6000815461433f816153d2565b6143498186614f86565b945060018216600081146143645760018114614375576143a8565b60ff198316865281860193506143a8565b61437e85614f1d565b60005b838110156143a057815481890152600182019150602081019050614381565b838801955050505b50505092915050565b60006143be601383614f86565b91506143c98261566a565b601382019050919050565b60006143e1601383614f86565b91506143ec82615693565b601382019050919050565b6000614404602c83614f75565b915061440f826156bc565b604082019050919050565b6000614427602d83614f75565b91506144328261570b565b604082019050919050565b600061444a601f83614f75565b91506144558261575a565b602082019050919050565b600061446d601383614f86565b915061447882615783565b601382019050919050565b6000614490601883614f75565b915061449b826157ac565b602082019050919050565b60006144b3602b83614f75565b91506144be826157d5565b604082019050919050565b60006144d6603283614f75565b91506144e182615824565b604082019050919050565b60006144f9603c83614f86565b915061450482615873565b603c82019050919050565b600061451c602583614f75565b9150614527826158c2565b604082019050919050565b600061453f601383614f75565b915061454a82615911565b602082019050919050565b6000614562601c83614f75565b915061456d8261593a565b602082019050919050565b6000614585600283614f86565b915061459082615963565b600282019050919050565b60006145a8601183614f86565b91506145b38261598c565b601182019050919050565b60006145cb602483614f75565b91506145d6826159b5565b604082019050919050565b60006145ee601983614f75565b91506145f982615a04565b602082019050919050565b6000614611600183614f86565b915061461c82615a2d565b600182019050919050565b6000614634602983614f75565b915061463f82615a56565b604082019050919050565b6000614657602383614f75565b915061466282615aa5565b604082019050919050565b600061467a602083614f75565b915061468582615af4565b602082019050919050565b600061469d601183614f86565b91506146a882615b1d565b601182019050919050565b60006146c0600f83614f86565b91506146cb82615b46565b600f82019050919050565b60006146e3600a83614f86565b91506146ee82615b6f565b600a82019050919050565b6000614706601883614f75565b915061471182615b98565b602082019050919050565b6000614729602183614f75565b915061473482615bc1565b604082019050919050565b600061474c601d83614f86565b915061475782615c10565b601d82019050919050565b600061476f600c83614f86565b915061477a82615c39565b600c82019050919050565b6000614792603d83614f75565b915061479d82615c62565b604082019050919050565b60006147b5602383614f75565b91506147c082615cb1565b604082019050919050565b60006147d8602c83614f75565b91506147e382615d00565b604082019050919050565b60006147fb603583614f75565b915061480682615d4f565b604082019050919050565b600061481e600483614f86565b915061482982615d9e565b600482019050919050565b6000614841602a83614f75565b915061484c82615dc7565b604082019050919050565b6000614864600183614f86565b915061486f82615e16565b600182019050919050565b600060c0830160008301518482036000860152614897828261428f565b915050602083015184820360208601526148b1828261428f565b915050604083015184820360408601526148cb828261428f565b91505060608301516148e06060860182614911565b5060808301516148f36080860182614911565b5060a083015161490660a0860182614911565b508091505092915050565b61491a81615379565b82525050565b61492981615379565b82525050565b61494061493b82615379565b6154cc565b82525050565b60006149528286614332565b915061495d82614857565b91506149698285614301565b915061497482614857565b91506149808284614301565b9150819050949350505050565b600061499882614578565b91506149a4828461425e565b915081905092915050565b60006149ba826146b3565b91506149c68287614332565b91506149d18261459b565b91506149dd82866141ff565b6014820191506149ec82614690565b91506149f8828561492f565b602082019150614a07826143b1565b9150614a13828461492f565b60208201915081905095945050505050565b6000614a30826146d6565b9150614a3c8289614301565b9150614a4782614604565b9150614a538288614301565b9150614a5e82614460565b9150614a6a8287614301565b9150614a75826143d4565b9150614a818286614301565b9150614a8c82614762565b9150614a988285614332565b9150614aa3826144ec565b9150614aaf8284614301565b9150614aba82614811565b9150819050979650505050505050565b6000614ad58261473f565b9150614ae18284614301565b915081905092915050565b6000602082019050614b0160008301846141f0565b92915050565b6000608082019050614b1c60008301876141f0565b614b2960208301866141f0565b614b366040830185614920565b8181036060830152614b488184614225565b905095945050505050565b6000602082019050614b686000830184614216565b92915050565b60006020820190508181036000830152614b8881846142c8565b905092915050565b60006020820190508181036000830152614ba9816143f7565b9050919050565b60006020820190508181036000830152614bc98161441a565b9050919050565b60006020820190508181036000830152614be98161443d565b9050919050565b60006020820190508181036000830152614c0981614483565b9050919050565b60006020820190508181036000830152614c29816144a6565b9050919050565b60006020820190508181036000830152614c49816144c9565b9050919050565b60006020820190508181036000830152614c698161450f565b9050919050565b60006020820190508181036000830152614c8981614532565b9050919050565b60006020820190508181036000830152614ca981614555565b9050919050565b60006020820190508181036000830152614cc9816145be565b9050919050565b60006020820190508181036000830152614ce9816145e1565b9050919050565b60006020820190508181036000830152614d0981614627565b9050919050565b60006020820190508181036000830152614d298161464a565b9050919050565b60006020820190508181036000830152614d498161466d565b9050919050565b60006020820190508181036000830152614d69816146f9565b9050919050565b60006020820190508181036000830152614d898161471c565b9050919050565b60006020820190508181036000830152614da981614785565b9050919050565b60006020820190508181036000830152614dc9816147a8565b9050919050565b60006020820190508181036000830152614de9816147cb565b9050919050565b60006020820190508181036000830152614e09816147ee565b9050919050565b60006020820190508181036000830152614e2981614834565b9050919050565b60006020820190508181036000830152614e4a818461487a565b905092915050565b6000602082019050614e676000830184614920565b92915050565b6000604082019050614e826000830185614920565b614e8f6020830184614920565b9392505050565b6000614ea0614eb1565b9050614eac8282615404565b919050565b6000604051905090565b600067ffffffffffffffff821115614ed657614ed56155f2565b5b614edf8261563f565b9050602081019050919050565b600067ffffffffffffffff821115614f0757614f066155f2565b5b614f108261563f565b9050602081019050919050565b60008190508160005260206000209050919050565b600081519050919050565b600081519050919050565b600082825260208201905092915050565b600081905092915050565b600082825260208201905092915050565b600082825260208201905092915050565b600081905092915050565b6000614f9c82615379565b9150614fa783615379565b9250827fffffffffffffffffffffffffffffffffffffffffffffffffffffffffffffffff03821115614fdc57614fdb615507565b5b828201905092915050565b6000614ff282615383565b9150614ffd83615383565b92508260ff0382111561501357615012615507565b5b828201905092915050565b600061502982615379565b915061503483615379565b92508261504457615043615536565b5b828204905092915050565b600061505a82615383565b915061506583615383565b92508261507557615074615536565b5b828204905092915050565b6000808291508390505b60018511156150ca578086048111156150a6576150a5615507565b5b60018516156150b55780820291505b80810290506150c38561565d565b945061508a565b94509492505050565b60006150de82615379565b91506150e983615379565b92506151167fffffffffffffffffffffffffffffffffffffffffffffffffffffffffffffffff848461511e565b905092915050565b60008261512e57600190506151ea565b8161513c57600090506151ea565b8160018114615152576002811461515c5761518b565b60019150506151ea565b60ff84111561516e5761516d615507565b5b8360020a91508482111561518557615184615507565b5b506151ea565b5060208310610133831016604e8410600b84101617156151c05782820a9050838111156151bb576151ba615507565b5b6151ea565b6151cd8484846001615080565b925090508184048111156151e4576151e3615507565b5b81810290505b9392505050565b60006151fc82615379565b915061520783615379565b9250817fffffffffffffffffffffffffffffffffffffffffffffffffffffffffffffffff04831182151516156152405761523f615507565b5b828202905092915050565b600061525682615383565b915061526183615383565b92508160ff048311821515161561527b5761527a615507565b5b828202905092915050565b600061529182615379565b915061529c83615379565b9250828210156152af576152ae615507565b5b828203905092915050565b60006152c582615383565b91506152d083615383565b9250828210156152e3576152e2615507565b5b828203905092915050565b60006152f982615338565b9050919050565b60008115159050919050565b60007fffffffff0000000000000000000000000000000000000000000000000000000082169050919050565b600073ffffffffffffffffffffffffffffffffffffffff82169050919050565b600074ffffffffffffffffffffffffffffffffffffffffff82169050919050565b6000819050919050565b600060ff82169050919050565b82818337600083830152505050565b60005b838110156153bd5780820151818401526020810190506153a2565b838111156153cc576000848401525b50505050565b600060028204905060018216806153ea57607f821691505b602082108114156153fe576153fd615565565b5b50919050565b61540d8261563f565b810181811067ffffffffffffffff8211171561542c5761542b6155f2565b5b80604052505050565b600061544082615379565b91507fffffffffffffffffffffffffffffffffffffffffffffffffffffffffffffffff82141561547357615472615507565b5b600182019050919050565b600061548982615383565b915060ff82141561549d5761549c615507565b5b600182019050919050565b60006154b3826154ba565b9050919050565b60006154c582615650565b9050919050565b6000819050919050565b60006154e182615379565b91506154ec83615379565b9250826154fc576154fb615536565b5b828206905092915050565b7f4e487b7100000000000000000000000000000000000000000000000000000000600052601160045260246000fd5b7f4e487b7100000000000000000000000000000000000000000000000000000000600052601260045260246000fd5b7f4e487b7100000000000000000000000000000000000000000000000000000000600052602260045260246000fd5b7f4e487b7100000000000000000000000000000000000000000000000000000000600052603160045260246000fd5b7f4e487b7100000000000000000000000000000000000000000000000000000000600052603260045260246000fd5b7f4e487b7100000000000000000000000000000000000000000000000000000000600052604160045260246000fd5b600080fd5b600080fd5b600080fd5b600080fd5b600080fd5b600080fd5b6000601f19601f8301169050919050565b60008160601b9050919050565b60008160011c9050919050565b7f2c20546f74616c205075726368617365643a2000000000000000000000000000600082015250565b7f222c202265787465726e616c5f75726c223a2000000000000000000000000000600082015250565b7f63757272656e74206f776e6572206d757374207365742063616c6c657220617360008201527f206e657874206f776e65722e0000000000000000000000000000000000000000602082015250565b7f4552433732313a2063616c6c6572206973206e6f7420746f6b656e206f776e6560008201527f72206f7220617070726f76656400000000000000000000000000000000000000602082015250565b7f4e657874206f776e657220697320746865207a65726f20616464726573732e00600082015250565b7f222c20226465736372697074696f6e223a202200000000000000000000000000600082015250565b7f63616c6c6572206973206e6f7420746865206f776e65722e0000000000000000600082015250565b7f455243373231456e756d657261626c653a206f776e657220696e646578206f7560008201527f74206f6620626f756e6473000000000000000000000000000000000000000000602082015250565b7f4552433732313a207472616e7366657220746f206e6f6e20455243373231526560008201527f63656976657220696d706c656d656e7465720000000000000000000000000000602082015250565b7f222c202261747472696275746573223a5b7b202274726169745f74797065223a60008201527f202245646974696f6e2053657269616c222c202276616c7565223a2000000000602082015250565b7f4552433732313a207472616e736665722066726f6d20696e636f72726563742060008201527f6f776e6572000000000000000000000000000000000000000000000000000000602082015250565b7f756e617574686f72697a65642063616c6c657200000000000000000000000000600082015250565b7f4552433732313a20746f6b656e20616c7265616479206d696e74656400000000600082015250565b7f3078000000000000000000000000000000000000000000000000000000000000600082015250565b7f2c2045646974696f6e204f776e65723a20000000000000000000000000000000600082015250565b7f4552433732313a207472616e7366657220746f20746865207a65726f2061646460008201527f7265737300000000000000000000000000000000000000000000000000000000602082015250565b7f4552433732313a20617070726f766520746f2063616c6c657200000000000000600082015250565b7f2000000000000000000000000000000000000000000000000000000000000000600082015250565b7f4552433732313a2061646472657373207a65726f206973206e6f74206120766160008201527f6c6964206f776e65720000000000000000000000000000000000000000000000602082015250565b7f4552433732313a20717565727920666f72206e6f6e6578697374656e7420746f60008201527f6b656e0000000000000000000000000000000000000000000000000000000000602082015250565b7f4552433732313a206d696e7420746f20746865207a65726f2061646472657373600082015250565b7f2c2045646974696f6e2050726963653a20000000000000000000000000000000600082015250565b7f45646974696f6e205469746c653a200000000000000000000000000000000000600082015250565b7f7b226e616d65223a202200000000000000000000000000000000000000000000600082015250565b7f4552433732313a20696e76616c696420746f6b656e2049440000000000000000600082015250565b7f4552433732313a20617070726f76616c20746f2063757272656e74206f776e6560008201527f7200000000000000000000000000000000000000000000000000000000000000602082015250565b7f646174613a6170706c69636174696f6e2f6a736f6e3b6261736536342c000000600082015250565b7f222c2022696d616765223a200000000000000000000000000000000000000000600082015250565b7f4552433732313a20617070726f76652063616c6c6572206973206e6f7420746f60008201527f6b656e206f776e6572206f7220617070726f76656420666f7220616c6c000000602082015250565b7f496e636f72726563742066756e647320746f206275792074686973206564697460008201527f696f6e0000000000000000000000000000000000000000000000000000000000602082015250565b7f455243373231456e756d657261626c653a20676c6f62616c20696e646578206f60008201527f7574206f6620626f756e64730000000000000000000000000000000000000000602082015250565b7f455243373231456e756d657261626c653a20636f6e736563757469766520747260008201527f616e7366657273206e6f7420737570706f727465640000000000000000000000602082015250565b7f7d5d207d00000000000000000000000000000000000000000000000000000000600082015250565b7f53656e646572206861766520616c72656164792070757263686173656420746860008201527f69732065646974696f6e00000000000000000000000000000000000000000000602082015250565b7f2f00000000000000000000000000000000000000000000000000000000000000600082015250565b615e4881615358565b8114615e5357600080fd5b50565b615e5f81615300565b8114615e6a57600080fd5b50565b615e768161530c565b8114615e8157600080fd5b50565b615e8d81615379565b8114615e9857600080fd5b5056fe4142434445464748494a4b4c4d4e4f505152535455565758595a6162636465666768696a6b6c6d6e6f707172737475767778797a303132333435363738392b2fa26474726f6e5822122026a893f758d8ae89d0781efdb971837a7a8f17f3051d7401500ac46d14c5dc9864736f6c63430008060033",
  "source": "// SPDX-License-Identifier: MIT\npragma solidity ^0.8.0;\n\nimport \"../standard/ERC721.sol\";\nimport \"../standard/ERC721Enumerable.sol\";\nimport \"../standard/ERC721Burnable.sol\";\nimport \"../standard/Ownable.sol\";\nimport \"../standard/Base64.sol\";\nimport \"../standard/Counters.sol\";\nimport \"./IThoughtEdition.sol\";\nimport \"./IThoughtEditionFactory.sol\";\n\ncontract ThoughtEdition is ERC721, ERC721Enumerable, ERC721Burnable, Ownable, IThoughtEdition {\n\n    /// @notice Address that deploys and initializes clones.\n    address public immutable factory;\n\n    /// > [[[[[[[[[[[ Token Data ]]]]]]]]]]]\n    /// @notice Token title.\n    string public title;\n\n    /// @notice Token text content, stored in IPFS.\n    string private contentURI;\n\n    /// @notice Token image content, stored in IPFS.\n    string public imageURI;\n\n    /// @notice Token price, set by the owner.\n    uint256 public price;\n\n    /// @notice Token creation timpestamp.\n    uint256 public createdAt;\n\n    /// @notice Base URI for metadata.\n    string internal baseMetadataURI;\n\n    /// @notice Implementation logic for clones.\n    /// @param _factory the factory contract deploying clones with this implementation.\n    constructor(address _factory, string memory _baseMetadataURI) ERC721(\"ThoughtEdition\", \"THT\") Ownable(address(0)) {\n        // Assert not the zero-address.\n        require(_factory != address(0), \"must set factory\");\n\n        // Store factory.\n        factory = _factory;\n        // Store baseURI\n        baseMetadataURI = _baseMetadataURI;\n    }\n\n    /// @notice Initialize a clone by storing edition parameters. Called only by the factory. \n    /// @param _owner owner of the clone.\n    /// @param edition edition parameters used to deploy the clone.\n    function initialize(address _owner, ThoughtEdition memory edition) override external {\n        // Only factory can call this function.\n        require(msg.sender == factory, \"unauthorized caller\");\n\n        // Store edition data.\n        title = edition.title;\n        imageURI = edition.imageURI;\n        contentURI = edition.contentURI;\n        price = edition.price;\n        createdAt = edition.createdAt;\n        \n        // Store owner.\n        _setInitialOwner(_owner);\n    }\n\n    using Counters for Counters.Counter;\n\n    Counters.Counter private _tokenIdCounter;\n\n    function safeMint(address to) override external onlyOwner {\n        uint256 tokenId = _tokenIdCounter.current();\n        _tokenIdCounter.increment();\n        _safeMint(to, tokenId);\n    }\n\n    function purchase() override external payable {\n        require(msg.value == price, \"Incorrect funds to buy this edition\");\n        require(balanceOf(msg.sender) == 0, \"Sender have already purchased this edition\");\n        payable(owner).transfer(msg.value);\n        uint256 tokenId = _tokenIdCounter.current();\n        _tokenIdCounter.increment();\n        _safeMint(msg.sender, tokenId);\n        IThoughtEditionFactory(factory).registerClaim(msg.sender);\n        emit ThoughtEditionPurchased(msg.sender, tokenId, msg.sender, price);\n    }\n\n    // The following functions are overrides required by Solidity.\n    function _beforeTokenTransfer(address from, address to, uint256 tokenId, uint256 batchSize) internal override(ERC721, ERC721Enumerable) {\n        super._beforeTokenTransfer(from, to, tokenId, batchSize);\n    }\n\n    function supportsInterface(bytes4 interfaceId) public view override(ERC721, ERC721Enumerable) returns (bool) {\n        return super.supportsInterface(interfaceId);\n    }\n   \n    function getContentURI() override external view returns (string memory) {\n        if (price == 0 || balanceOf(msg.sender) > 0 || isOwner()) return contentURI;\n        return  \"\";\n    }\n\n    /// @notice Get `tokenId` URI or data\n    /// @param tokenId The tokenId used to request data\n    function tokenURI(uint256 tokenId) public view virtual override returns (string memory) {\n        require(_exists(tokenId), \"ERC721: query for nonexistent token\");\n         string memory json = Base64.encode(\n            bytes(\n                string(\n                    abi.encodePacked(\n                        '{\"name\": \"', _escapeQuotes(title),\" \", Strings.toString(tokenId),\n                        '\", \"description\": \"', description(),\n                        '\", \"external_url\": ', getExternalURL(tokenId),\n                        '\", \"image\": ', imageURI,\n                        '\", \"attributes\":[{ \"trait_type\": \"Edition Serial\", \"value\": ',\n                        Strings.toString(tokenId),\n                        \"}] }\"\n                    )\n                )\n            )\n        );\n        return string(abi.encodePacked(\"data:application/json;base64,\", json));\n    }\n\n    /// @notice External Url.\n    function getExternalURL(uint256 tokenId) private view returns (string memory) {\n        return string(abi.encodePacked(baseMetadataURI, \"/\", _addressToString(address(this)), \"/\", Strings.toString(tokenId)));\n    }\n\n    /// @notice Edition details\n    function description() private view returns (string memory) {\n        return string(abi.encodePacked(\"Edition Title: \", title, \", Edition Owner: \", owner, \", Edition Price: \", price,  \", Total Purchased: \", totalSupply()));\n    }\n\n    // @notice Get Edition details\n    function getEdition() external view override returns (ThoughtEdition memory) {\n        string memory _contentURI = \"\";\n        if (price == 0 || balanceOf(msg.sender) > 0 || isOwner()) {\n            _contentURI = contentURI;\n        } \n        return ThoughtEdition({\n            title: title,\n            imageURI: imageURI,\n            contentURI: _contentURI,\n            price: price,\n            createdAt: createdAt, \n            totalPurchased: totalSupply()\n        });\n    }\n\n    function setBaseURI(string memory uri) external override onlyOwner {\n        baseMetadataURI = uri;\n    }\n\n    function _baseURI() internal view virtual override returns (string memory) {\n        return baseMetadataURI;\n    }\n\n    function _escapeQuotes(\n        string memory str\n    ) internal pure returns (string memory) {\n        bytes memory strBytes = bytes(str);\n        uint8 quotesCount = 0;\n        for (uint8 i = 0; i < strBytes.length; i++) {\n            if (strBytes[i] == '\"') {\n                quotesCount++;\n            }\n        }\n        if (quotesCount > 0) {\n            bytes memory escapedBytes = new bytes(\n                strBytes.length + (quotesCount)\n            );\n            uint256 index;\n            for (uint8 i = 0; i < strBytes.length; i++) {\n                if (strBytes[i] == '\"') {\n                    escapedBytes[index++] = \"\\\\\";\n                }\n                escapedBytes[index++] = strBytes[i];\n            }\n            return string(escapedBytes);\n        }\n        return str;\n    }\n\n    // https://ethereum.stackexchange.com/questions/8346/convert-address-to-string/8447#8447\n    function _addressToString(address x) internal pure returns (string memory) {\n        bytes memory s = new bytes(40);\n        for (uint256 i = 0; i < 20; i++) {\n            bytes1 b = bytes1(\n                uint8(uint256(uint160(x)) / (2 ** (8 * (19 - i))))\n            );\n            bytes1 hi = bytes1(uint8(b) / 16);\n            bytes1 lo = bytes1(uint8(b) - 16 * uint8(hi));\n            s[2 * i] = _char(hi);\n            s[2 * i + 1] = _char(lo);\n        }\n        return string(abi.encodePacked(\"0x\", s));\n    }\n\n    function _char(bytes1 b) internal pure returns (bytes1 c) {\n        if (uint8(b) < 10) return bytes1(uint8(b) + 0x30);\n        else return bytes1(uint8(b) + 0x57);\n    }\n}",
  "sourcePath": "/Users/a0p0bhv/Documents/ThoughtsContracts/contracts/writing-editions/ThoughtEdition.sol",
  "compiler": {
    "name": "solc",
    "version": "0.8.6+commit.0e36fba0.mod.Emscripten.clang"
  },
  "schemaVersion": "2.0.1",
  "updatedAt": "2023-10-05T15:06:12.144Z"
}